:042000006DEF10F080
:08200800000E0609BA6EFE0E7F
:10201000BB6E94948B940C0EBD6EB76AB66A010EBB
:10202000B96E0F015991000180EF10F0EA6A060EB7
:10203000E96EEF500EE00F0E016E006A002EFED723
:10204000012EFBD78F0E006E002EFED70000EF2E64
:10205000F2D71200056A0468045202E105521BE03F
:1020600005C002F004C001F0023201320232013236
:10207000023201C0BEFF02320230300B006EBD5092
:10208000CF0B0010BD6E050E066ED0DF0450D8B425
:1020900005060406E1D7056A046A05521DE10450ED
:1020A000FE081AE305C002F004C001F0023201325A
:1020B00002320132023201C0BEFF02320230300B66
:1020C000006EBD50CF0B0010BD6E050E066EAEDF6C
:1020D000042AD8B4052AE1D71200F86AD09E700EFF
:1020E000D36ED26A9B6A056A046A0F015B6B5C6BF4
:1020F0005D6B5E6B5F6B9A6A996A986A000184D720
:1021000093908A8093928A9293948A94A3DF939077
:102110008A9093928A8293948A949CDF93908A9077
:0E21200093928A9293948A8495DFEAD7030003
:020000040030CA
:0E00000023C85E3C00D3A1000FC00FE00F40EC
:00000001FF
;PIC18F45K50
;CRC=3156  CREATED="01-dic.-20 11:31"
