:042000005AEF10F093
:08200800EA6A060EE96EEF50D2
:102010000EE00F0E016E006A002EFED7012EFBD7D8
:102020008F0E006E002EFED70000EF2EF2D71200AA
:10203000040E056E046A045202E105521BE005C05D
:1020400002F004C001F002320132023201320232E7
:1020500001C0BEFF02320230300B006EBD50CF0B0C
:102060000010BD6E050E066ECFDF0450D8B4050615
:102070000406E1D7056A046A055003081AE305C09F
:1020800002F004C001F002320132023201320232A7
:1020900001C0BEFF02320230300B006EBD50CF0BCC
:1020A0000010BD6E050E066EAFDF042AD8B4052AF7
:1020B000E3D71200F86AD09E700ED36ED26A9B6A84
:1020C000056A046A0F015B6B5C6B5D6B5E6B5F6B3B
:1020D0009A6A996A986A000E0609BA6EFE0EBB6E7D
:1020E00094948B940C0EBD6EB76AB66A010EB96EED
:1020F000599193908A8093928A9293948A94000142
:1021000097DF93908A9093928A8293948A9490DF37
:1021100093908A9093928A9293948A8489DF0F0194
:04212000E8D70300F9
:020000040030CA
:0E00000023C85E3C00D3A1000FC00FE00F40EC
:00000001FF
;PIC18F45K50
;CRC=B6B4  CREATED="30-ago.-23 16:12"
