:0420000068EF10F085
:08200800000E0609CA6EFE0E6F
:10201000CB6E94948B940C0EBD6EB76AB66A73EF58
:1020200010F0EA6A060EE96EEF500EE00F0E016E38
:10203000006A002EFED7012EFBD78F0E006E002EF9
:10204000FED70000EF2EF2D71200056A0468045292
:1020500002E105521BE005C002F004C001F00232AB
:10206000013202320132023201C0BEFF02320230BE
:10207000300B006EBD50CF0B0010BD6E050E066E0E
:10208000D0DF0450D8B405060406E1D7056A046A17
:1020900005521DE10450FE081AE305C002F004C019
:1020A00001F00232013202320132023201C0BEFFBF
:1020B00002320230300B006EBD50CF0B0010BD6EEF
:1020C000050E066EAEDF042AD8B4052AE1D7120049
:1020D000F86AD09E056A046AC150C00B0F09C16E30
:1020E000070EB46E91D793908A8093928A929394BC
:1020F0008A94ABDF93908A9093928A8293948A9485
:10210000A4DF93908A9093928A9293948A849DDF1D
:04211000EAD7030007
:020000040030CA
:0E00000007CC261E0087A1000FC00FE00F40A6
:00000001FF
;PIC18F4550
;CRC=3ADE  CREATED="01-dic.-20 11:32"
